:100000000C9462000C948A000C948A000C948A0070
:100010000C948A000C948A000C948A000C948A0038
:100020000C948A000C948A000C948A000C94690445
:100030000C948A000C948A000C948A000C948A0018
:100040000C94C7030C948A000C9437040C9411048C
:100050000C948A000C948A000C948A000C948A00F8
:100060000C948A000C948A000000000024002700F1
:100070002A0000000000250028002B0000000000DE
:1000800023002600290004040404040404040202DA
:100090000202020203030303030301020408102007
:1000A0004080010204081020010204081020000012
:1000B0000008000201000003040700000000000027
:1000C00000006A0511241FBECFEFD8E0DEBFCDBF10
:1000D00011E0A0E0B1E0E2E0F4E102C005900D9291
:1000E000A831B107D9F721E0A8E1B1E001C01D9224
:1000F000AB3EB207E1F710E0C2E6D0E004C02197C2
:10010000FE010E945608C136D107C9F70E94C705F3
:100110000C94FF090C9400008F929F92AF92BF92B3
:10012000FF920F931F93CF93DF93F090E8012BE0A2
:100130002F1508F44CC02091EA0108E512E0021BDB
:10014000110927FD1395000F111F000F111F20919A
:10015000E901C8E8D0E0C21BD10927FDD395CC0F37
:10016000DD1FCC0FDD1F4E010D2E000CAA08BB08B1
:100170009801012E000C440B550B281939094A0926
:100180005B09DC010E94110824EB30E040E050E004
:100190000E94E707820E931EA41EB51E8C169D06B4
:1001A0002CF0E801801691060CF4E4012297CC0FA4
:1001B000DD1F2FB7F8948F2D90E0FC01EE0FFF1F8D
:1001C000E80FF91FED53FE4FD283C1832FBFDF919C
:1001D000CF911F910F91FF90BF90AF909F908F9004
:1001E0000895833081F028F4813099F08230A9F0AD
:1001F00008958730A9F08830C9F08430B1F4809137
:1002000080008F7D03C0809180008F778093800075
:10021000089584B58F7784BD089584B58F7DFBCF15
:100220008091B0008F778093B00008958091B000E6
:100230008F7DF9CFCF93DF93282F30E0F901E2557E
:10024000FF4F8491F901E656FF4FD491F901EA5727
:10025000FF4FC491CC23A1F081110E94F100EC2F3B
:10026000F0E0EE0FFF1FE458FF4FA591B491EC9121
:10027000ED2381E090E009F480E0DF91CF910895D3
:1002800080E090E0FACF1F93CF93DF93282F30E0E8
:10029000F901E255FF4F8491F901E656FF4FD491E1
:1002A000F901EA57FF4FC491CC23A9F0162F811111
:1002B0000E94F100EC2FF0E0EE0FFF1FEE58FF4F11
:1002C000A591B4918FB7F894EC91111108C0D09515
:1002D000DE23DC938FBFDF91CF911F910895DE2B3A
:1002E000F8CFCF93DF9390E0FC01E656FF4F2491C7
:1002F0008A579F4FFC0184918823D1F090E0880FAA
:10030000991FFC01E859FF4FA591B491FC01EE58EB
:10031000FF4FC591D49161110EC09FB7F8948C9195
:10032000E22FE0958E238C932881E223E8839FBF00
:10033000DF91CF9108958FB7F894EC91E22BEC9375
:100340008FBFF6CF3FB7F89480912201909123019F
:10035000A0912401B091250126B5A89B05C02F3F8F
:1003600019F00196A11DB11D3FBFBA2FA92F982FDB
:100370008827BC01CD01620F711D811D911D42E0D6
:10038000660F771F881F991F4A95D1F708958F929E
:100390009F92AF92BF92CF92DF92EF92FF926B014A
:1003A0007C010E94A2014B015C01C114D104E10453
:1003B000F104B9F00E94A201681979098A099B0920
:1003C000683E73408105910580F321E0C21AD1088F
:1003D000E108F10888EE880E83E0981EA11CB11C8C
:1003E000E4CFFF90EF90DF90CF90BF90AF909F90C1
:1003F0008F900895AF92BF92CF92DF92EF92FF92CB
:100400000F931F93CF93DF936C017B018B01040F3C
:10041000151FEB015E01AE18BF08C017D10759F0D8
:100420006991D601ED91FC910190F081E02DC6011A
:100430000995892B79F7C501DF91CF911F910F9114
:10044000FF90EF90DF90CF90BF90AF900895FC01A8
:10045000538D448D252F30E0842F90E0821B930B29
:10046000541710F0CF96089501970895FC01918DCF
:10047000828D981761F0A28DAE0FBF2FB11D5D96D2
:100480008C91928D9F5F9F73928F90E008958FEF74
:100490009FEF0895FC01918D828D981731F0828D28
:1004A000E80FF11D858D90E008958FEF9FEF08957F
:1004B000FC01918D228D892F90E0805C9F4F821BE3
:1004C00091098F739927089586E291E00E9458025E
:1004D00021E0892B09F420E0822F089580E090E04C
:1004E000892B29F00E94640281110C940000089568
:1004F000FC01A48DA80FB92FB11DA35ABF4F2C9199
:10050000848D90E001968F739927848FA689B7898F
:100510002C93A089B1898C91837080648C93938D86
:10052000848D981306C00288F389E02D80818F7D29
:1005300080830895EF92FF920F931F93CF93DF93E1
:10054000EC0181E0888F9B8D8C8D98131AC0E8890F
:10055000F989808185FF15C09FB7F894EE89FF89DE
:100560006083E889F98980818370806480839FBF7C
:1005700081E090E0DF91CF911F910F91FF90EF907C
:100580000895F62E0B8D10E00F5F1F4F0F7311278C
:10059000E02E8C8D8E110CC00FB607FCFACFE889C7
:1005A000F989808185FFF5CFCE010E947802F1CFD5
:1005B000EB8DEC0FFD2FF11DE35AFF4FF0829FB73B
:1005C000F8940B8FEA89FB8980818062CFCFCF932B
:1005D000DF93EC01888D8823B9F0AA89BB89E8896B
:1005E000F9898C9185FD03C0808186FD0DC00FB611
:1005F00007FCF7CF8C9185FFF2CF808185FFEDCF8F
:10060000CE010E947802E9CFDF91CF910895CF9279
:10061000DF92EF92FF92BC01990F880B990B0E9419
:10062000060920E030E048EC52E40E945C0820E03B
:1006300030E040E851E40E9492090E94CE086B012C
:1006400061E08DE00E944301B6010D2C000C880B87
:10065000990B0E94C70160E08DE00E94430160E1B8
:1006600070E06C197D09072E000C880B990BFF9028
:10067000EF90DF90CF900C94C701FC010190002017
:10068000E9F73197AF01481B590BBC0186E291E0B5
:100690000C94FA018F929F92AF92BF92CF92DF9209
:1006A000EF92FF920F931F93CF93DF93CDB7DEB7F7
:1006B000A1970FB6F894DEBF0FBECDBF6C01990FA6
:1006C000EE08FF08F7FE41C06DE286E291E00E946D
:1006D0009A028C0122273327A9012C193D094E09C2
:1006E0005F0919A2CE0181967C019AE0892E912C96
:1006F000A12CB12CCA01B901A50194010E941908CD
:10070000605DF70162937F012115310541055105B7
:1007100089F790E080E0309719F0CF010E943D0307
:10072000800F911FA1960FB6F894DEBF0FBECDBF0C
:10073000DF91CF911F910F91FF90EF90DF90CF90BD
:10074000BF90AF909F908F900895A701960119A236
:100750008E010F5D1F4F8AE0C82ED12CE12CF12CA9
:10076000CA01B901A70196010E941908605DF8014C
:1007700062938F01211531054105510589F790E0FC
:1007800080E0309779F2CF010E943D03CBCF1F92DA
:100790000F920FB60F9211242F933F938F939F9335
:1007A000AF93BF9380911E0190911F01A0912001F2
:1007B000B091210130911D0123E0230F2D3758F511
:1007C0000196A11DB11D20931D0180931E019093E0
:1007D0001F01A0932001B0932101809122019091EB
:1007E0002301A0912401B09125010196A11DB11D05
:1007F0008093220190932301A0932401B0932501BB
:10080000BF91AF919F918F913F912F910F900FBE0C
:100810000F901F90189526E8230F0296A11DB11D79
:10082000D2CF1F920F920FB60F9211242F933F93A6
:100830004F935F936F937F938F939F93AF93BF93E8
:10084000EF93FF9386E291E00E947802FF91EF918F
:10085000BF91AF919F918F917F916F915F914F91D8
:100860003F912F910F900FBE0F901F9018951F92E0
:100870000F920FB60F9211242F938F939F93EF93A4
:10088000FF93E0913601F09137018081E0913C01C6
:10089000F0913D0182FD1BC0908180913F018F5FEF
:1008A0008F7320914001821741F0E0913F01F0E009
:1008B000EA5DFE4F958F80933F01FF91EF919F91ED
:1008C0008F912F910F900FBE0F901F9018958081E0
:1008D000F4CF1F920F920FB60F9211242F933F93D4
:1008E0004F935F936F937F938F939F93AF93BF9338
:1008F000CF93DF93EF93FF9380911801C091E701AD
:10090000D0E087FF24C0109285001092840080916F
:1009100018018F5F8093180180911801082E000C38
:10092000990B8C179D0724F4809118018C30C4F129
:100930008091840090918500049680349C4908F44D
:100940007AC08091840090918500049676C0809151
:100950001801082E000C990B8C179D07C4F6E09126
:1009600018018E2FEE0F990BFC01EE0FFF1FE80F01
:10097000F91FED53FE4F808186FFC9CFE09118012A
:100980008E2FEE0F990BFC01EE0FFF1FE80FF91FE2
:10099000ED53FE4F808160E08F730E944301B7CF1B
:1009A0002091840030918500E09118018E2FEE0F88
:1009B000990BFC01EE0FFF1FE80FF91FED53FE4FDF
:1009C00081819281820F931F909389008093880088
:1009D000E09118018E2FEE0F990BFC01EE0FFF1F17
:1009E000E80FF91FED53FE4F808186FF11C0E091A3
:1009F00018018E2FEE0F990BFC01EE0FFF1FE80F71
:100A0000F91FED53FE4F808161E08F730E94430117
:100A1000FF91EF91DF91CF91BF91AF919F918F9116
:100A20007F916F915F914F913F912F910F900FBEEA
:100A30000F901F90189580E49CE990938900809313
:100A400088008FEF80931801E3CFCF92DF92EF926F
:100A5000FF920F931F93E82FF92F05C00150110942
:100A60002109310961F1908196239417B9F305C0EA
:100A7000015011092109310911F190819623941334
:100A8000F7CFC12CD12CE12CF12C0AC08FEFC81A62
:100A9000D80AE80AF80A0C151D052E053F0579F05D
:100AA00080818623841791F36C2D7D2D8E2D9F2DB3
:100AB0001F910F91FF90EF90DF90CF90089560E02D
:100AC00070E080E090E01F910F91FF90EF90DF9039
:100AD000CF900895109229011092280188EE93E09A
:100AE000A0E0B0E080932A0190932B01A0932C0109
:100AF000B0932D0184E091E090932701809326012B
:100B000085EC90E0909333018093320184EC90E087
:100B1000909335018093340180EC90E090933701FD
:100B20008093360181EC90E09093390180933801F5
:100B300082EC90E090933B0180933A0186EC90E048
:100B400090933D0180933C0110923F01109240012F
:100B500010924101109242018091E7018C3098F48B
:100B600091E0980F9093E7018093E80190E0FC01F9
:100B7000EE0FFF1FE80FF91FED53FE4F88EB9BE0D0
:100B80009283818308958FEF8093E8010895CF9336
:100B9000DF9300D000D0CDB7DEB7789484B5826003
:100BA00084BD84B5816084BD85B5826085BD85B511
:100BB000816085BD80916E00816080936E0010928F
:100BC000810080918100826080938100809181000A
:100BD000816080938100809180008160809380009B
:100BE0008091B10084608093B1008091B0008160F9
:100BF0008093B00080917A00846080937A00809125
:100C00007A00826080937A0080917A00816080937C
:100C10007A0080917A00806880937A001092C100F7
:100C2000E0913601F091370182E08083E09132015A
:100C3000F09133011082E0913401F091350180E1AF
:100C4000808310923E01E0913A01F0913B0186E0F1
:100C50008083E0913801F091390180818061808347
:100C6000E0913801F0913901808188608083E091C2
:100C70003801F0913901808180688083E0913801EA
:100C8000F091390180818F7D808360E082E00E9455
:100C9000710161E08AE00E9471018091E8018C306D
:100CA00008F051C061E08AE00E9471018091E80182
:100CB000282F30E0F901EE0FFF1FE20FF31FED5375
:100CC000FE4F9081907C9A6090831092E90110927F
:100CD000EA012CE0622F0E944A08829FB001112491
:100CE00030E020E0AB01420F531FFA01EE0FFF1F6F
:100CF000E40FF51FED53FE4F908196FD16C02F5F58
:100D00003F4F2C30310571F781110FC010928000D8
:100D100082E0809381001092850010928400B19A45
:100D200080916F00826080936F00E091E8018E2FC8
:100D300090E0FC01EE0FFF1FE80FF91FED53FE4F8F
:100D400080818064808361E08BE00E94710161E0BA
:100D50008CE00E94710161E08DE00E94710161E010
:100D600080E00E94710160E083E10E94710160E017
:100D700082E10E94710160E081E10E94710160E006
:100D800080E10E94710160E08FE00E94710160E0EB
:100D90008EE00E94710160E087E00E94710160E0D6
:100DA00088E00E94710160E089E00E94710183E1A6
:100DB0000E941A011C0182E10E941A012C0181E1AA
:100DC0000E941A013C0180E10E941A018C018FE00F
:100DD0000E941A017C018EE00E941A016C0187E0DA
:100DE0000E941A015C0188E00E941A014C0189E00E
:100DF0000E941A019A83898391E080E021143104D2
:100E000009F490E09B838C834114510429F08B8179
:100E10009C8182609C838B836114710429F0EB8137
:100E2000FC81E460FC83EB830115110529F08B81C3
:100E30009C8188609C838B83E114F10429F0EB8111
:100E4000FC81E061FC83EB83C114D10429F08B8128
:100E50009C8180629C838B83A114B10429F0EB8177
:100E6000FC81E064FC83EB838114910429F08B8185
:100E70009C8180689C838B83C4010E944A03C501C6
:100E80000E944A03C6010E944A03C7010E944A0306
:100E9000C8010E944A03C3010E944A03C2010E9482
:100EA0004A03C1010E944A0382E191E00E943D038E
:100EB00089819A810E944A0384E191E00E943D0366
:100EC000E981FA81EF2B39F08B819C819195819595
:100ED00091099C838B838B819C810E944A0384E1CE
:100EE00091E00E943D03ECE9F0E06491E8E8F0E075
:100EF0008491E82FF0E0EE0FFF1FE458FF4F85913B
:100F0000949100E41CE920E030E0462F0E94250582
:100F10006B017C01C114D104E104F10439F0FFEF4D
:100F2000CF1ADF0AEF0AFF0A2FE0F222C09219015E
:100F3000D0921A01E0921B01F0921C01D701C60168
:100F4000855A9640A109B1098B329140A105B1059E
:100F5000E8F48EE690E00E948C0082E390E00E942C
:100F6000070361E08BE00E94430161E08CE00E9496
:100F7000430180E090E0892B09F419CF0E946402BC
:100F8000882309F414CF0E94000011CF8AE090E07A
:100F90000E948C00F9EECF1AF3E0DF0AE108F108B5
:100FA0002BE2C21621E0D206E104F10430F482E320
:100FB00090E00E94070360E0D5CF90E080E00E94BF
:100FC000070360E08BE00E94430160E0CFCF052E75
:100FD00097FB1EF400940E94FE0757FD07D00E9465
:100FE000190807FC03D04EF40C94FE075095409569
:100FF000309521953F4F4F4F5F4F089590958095C5
:10100000709561957F4F8F4F9F4F08950E943B08C9
:10101000A59F900DB49F900DA49F800D911D11244C
:101020000895B7FF0C9406080E940608821B930BD4
:101030000895A1E21A2EAA1BBB1BFD010DC0AA1F19
:10104000BB1FEE1FFF1FA217B307E407F50720F031
:10105000A21BB30BE40BF50B661F771F881F991FAC
:101060001A9469F760957095809590959B01AC01F5
:10107000BD01CF010895A29FB001B39FC001A39FFE
:10108000700D811D1124911DB29F700D811D1124C1
:10109000911D0895991B79E004C0991F961708F0D7
:1010A000961B881F7A95C9F780950895EE0FFF1F4C
:1010B0000590F491E02D09940E9470080C94580951
:1010C0000E94510958F00E944A0940F029F45F3FFC
:1010D00029F00C94410951110C948C090C94470986
:1010E0000E94690968F39923B1F3552391F3951B85
:1010F000550BBB27AA2762177307840738F09F5F39
:101100005F4F220F331F441FAA1FA9F335D00E2EA5
:101110003AF0E0E832D091505040E695001CCAF712
:101120002BD0FE2F29D0660F771F881FBB1F2617D5
:1011300037074807AB07B0E809F0BB0B802DBF01AC
:10114000FF2793585F4F3AF09E3F510578F00C947B
:1011500041090C948C095F3FE4F3983ED4F38695E3
:1011600077956795B795F7959F5FC9F7880F911D9C
:101170009695879597F90895E1E0660F771F881F88
:10118000BB1F621773078407BA0720F0621B730B3B
:10119000840BBA0BEE1F88F7E09508950E94D508DE
:1011A0006894B1110C948C0908950E94710988F01B
:1011B0009F5798F0B92F9927B751B0F0E1F0660F1B
:1011C000771F881F991F1AF0BA95C9F714C0B1305C
:1011D00091F00E948B09B1E008950C948B09672F60
:1011E000782F8827B85F39F0B93FCCF3869577958B
:1011F0006795B395D9F73EF4909580957095619574
:101200007F4F8F4F9F4F0895E89409C097FB3EF49E
:1012100090958095709561957F4F8F4F9F4F992343
:10122000A9F0F92F96E9BB279395F69587957795C1
:101230006795B795F111F8CFFAF4BB0F11F460FF81
:101240001BC06F5F7F4F8F4F9F4F16C0882311F0D9
:1012500096E911C0772321F09EE8872F762F05C0ED
:10126000662371F096E8862F70E060E02AF09A9588
:10127000660F771F881FDAF7880F9695879597F97D
:10128000089597F99F6780E870E060E008959FEF08
:1012900080EC089500240A9416161706180609060D
:1012A000089500240A9412161306140605060895DC
:1012B000092E0394000C11F4882352F0BB0F40F464
:1012C000BF2B11F460FF04C06F5F7F4F8F4F9F4FA4
:1012D000089557FD9058440F551F59F05F3F71F026
:1012E0004795880F97FB991F61F09F3F79F087958D
:1012F0000895121613061406551FF2CF4695F1DF16
:1013000008C0161617061806991FF1CF86957105A5
:10131000610508940895E894BB2766277727CB01D9
:1013200097F908950E94A5090C9458090E944A094A
:1013300038F00E94510920F0952311F00C944109D6
:101340000C94470911240C948C090E94690970F3CC
:10135000959FC1F3950F50E0551F629FF001729F5A
:10136000BB27F00DB11D639FAA27F00DB11DAA1F69
:10137000649F6627B00DA11D661F829F2227B00DB6
:10138000A11D621F739FB00DA11D621F839FA00D41
:10139000611D221F749F3327A00D611D231F849F91
:1013A000600D211D822F762F6A2F11249F575040E8
:1013B0009AF0F1F088234AF0EE0FFF1FBB1F661F63
:1013C000771F881F91505040A9F79E3F510580F02C
:1013D0000C9441090C948C095F3FE4F3983ED4F3DC
:1013E000869577956795B795F795E7959F5FC1F7D0
:1013F000FE2B880F911D9695879597F90895F8947F
:02140000FFCF1C
:10140200000000009A02FA012702E702580236029F
:081412004A0220000D0A00004F
:00000001FF
